:020000040800F2
:10000000D866002069020008172E0008D92D0008C4
:10001000152E0008A31F00086D3100080000000025
:100020000000000000000000000000001B2E00087F
:10003000A51F000800000000192E00081D2E000852
:10004000830200088302000883020008830200087C
:10005000830200088302000883020008830200086C
:10006000830200088302000883020008830200085C
:10007000830200088302000883020008830200084C
:10008000830200088302000883020008830200083C
:10009000830200088302000883020008830200082C
:1000A000830200088302000883020008830200081C
:1000B000830200088302000883020008830200080C
:1000C00083020008830200088302000883020008FC
:1000D00083020008613100088302000883020008DF
:1000E00083020008830200088302000883020008DC
:1000F00083020008830200088302000883020008CC
:1001000083020008830200088302000883020008BB
:1001100083020008830200088302000883020008AB
:10012000830200088302000883020008830200089B
:10013000830200088302000883020008830200088B
:10014000830200088302000883020008830200087B
:10015000830200088302000883020008830200086B
:10016000830200088302000883020008830200085B
:1001700083020008830200088302000800000000D8
:10018000830200088302000800F002F800F05DF826
:100190000AA090E8000C82448344AAF10107DA45E2
:1001A00001D100F052F8AFF2090EBAE80F0013F0D7
:1001B000010F18BFFB1A43F001031847D4D8000001
:1001C000F4D80000103A24BF78C878C1FAD8520792
:1001D00024BF30C830C144BF04680C6070470000C1
:1001E0000023002400250026103A28BF78C1FBD840
:1001F000520728BF30C148BF0B60704766290AF01C
:10020000BB87642900F06081752900F05D81782941
:1002100000F09681732900F0C386002070471FB557
:100220000AF0A5FF9DE8030000F0CCFB00F0D2FE31
:100230000400002000210AF0C5FDE06000F0E6FFA8
:100240001FBD10B501F04BF810BD01F082F811464A
:10025000FFF7E5FF05F0F0FB01F060F903B4FFF7ED
:10026000F0FF03BC02F0B4FF09488047094800478B
:10027000FEE7FEE7FEE7FEE7FEE7FEE7FEE7FEE756
:10028000FEE7FEE704480549054A064B70470000B3
:10029000AD2E000889010008D8060020D86600208D
:1002A000D8260020D8260020704770B5A0FB01405A
:1002B000B4F1805170F1000024BF002070BD2046D1
:1002C00000F0AFFB05001CBF214600F0D2FA284623
:1002D00070BD70B50446051F00F058FB0068002C87
:1002E00014BF446870BD002C18BFAC423CBF204610
:1002F0006468F8D301680A18AA4218BF456003D1A0
:100300002A6805461144016028684119A1421CBFB2
:100310006C6070BD6168696021680844286070BDC8
:1003200053EA020C00F069802DE9F04B4FF0000613
:10033000002B1FBFB3FA83F503FA05F424FA05F680
:100340005E4012BF1643B2FA82F502FA05F4C5F117
:1003500020051EBF22FA05FC44EA0C04203556EAAB
:10036000044C4FEA144418BF641C4FF000084FF0CF
:100370000009904271EB030C39D3002919BFB1FA7F
:1003800081F701FA07F6B0FA80F700FA07F6C7F12D
:1003900020071EBF20FA07FC46EA0C062037B6FBF2
:1003A000F4FCA7EB0507103F07F01F0BCBF120066D
:1003B0000CFA0BFB2CFA06F644BFB3460026202F9E
:1003C000A4BF5E464FF0000B5BEA060C08BF4FF07F
:1003D000010B19EB0B09ABFB027C48EB0608C01BB9
:1003E00006FB02CC0BFB03CC71EB0C01C1E70B4607
:1003F000024641464846BDE8F08B13B54FF0000079
:100400004FF00001AFF30080BDE81C4070470000D2
:100410000FB4044910B503AA029800F0C5FD10BC42
:100420005DF814FBCC05002070B5044685690068B2
:10043000C10601D5302600E02026C00707D070BDD8
:10044000D4E9012130469047206A401C20626D1E8D
:10045000F6D570BD70B5044685690078C00707D130
:1004600070BDD4E9012120209047206A401C206201
:100470006D1EF6D570BD70B50C460546012A05D037
:100480002878800600D5EA69002302E0012305E010
:100490005B1C934202D2E05C0028F9D1A869E618FF
:1004A000C01AA861286A184428622846FFF7BCFFD2
:1004B00004E0D5E9012114F8010B9047B442F8D3C8
:1004C0002846FFF7C7FF70BD2DE9F041064600241E
:1004D00010687529314616A510D0AFF300800028AA
:1004E00002DA404213A507E031688A0701D512A558
:1004F00002E0490704D511A5012401E0AFF3008013
:1005000000210A2206F1240709E0B0FBF2FCB0FB4F
:10051000F2F302FB1C00303078541846491C0028C6
:10052000F3D123462A463046BDE8F04100F0A8BA90
:10053000000000002D0000002B0000002000000043
:1005400070B504460D4621461068AFF3008021883F
:10055000090502D50F4A7A4402E00E4A7A440E3267
:10056000002104F1240305E000F00F060009965D68
:100570005E54491C0028F7D120780023000704D5D9
:10058000702D02D009B1022311322046BDE870401F
:1005900000F076BA46D400002DE9F05F89460446A3
:1005A0004FF0000ADFF874B1FB44C0F820A02046E9
:1005B000E1688847002874D0252806D0D4E90121B5
:1005C0009047206A401C2062F1E700265F462046E3
:1005D000E16888472028054607DB312D05D27819C8
:1005E00010F8200C08B10643F1E7B00701D526F05A
:1005F0000406C4F81CA00027C4F818A02A2D09D0AE
:10060000284602F0DCFD38B304EB8708303DC8F81B
:10061000185019E059F8041B204604EB8702916139
:10062000E1688847012F054618D1E069002820DAE3
:1006300026F020061DE0D8F8180000EB800005EB3E
:1006400040003038C8F818002046E1688847054661
:1006500002F0B5FD0028EED1012F0AD02E2D08D1D1
:100660002046E16888477F1C0546022F46F0200699
:10067000C4DBA069002803DA404246F00106A0610D
:10068000F00701D026F010066C2D0BD0682D09D094
:100690004C2D39D06A2D35D0742D35D07A2D33D0EC
:1006A00016E038E0E1682F4620468847B842054604
:1006B00009D16C2F26D04FF48060E16806432046B4
:1006C0008847054604E06C2F1AD04FF4807006432B
:1006D0000DB3A5F14100192802D8203546F4006673
:1006E0004A462946204626604E46FFF787FD80B1E0
:1006F00001280BD0F61D26F0070000F1080956E787
:100700004020E4E78020D8E70020D6E706F104097E
:100710004DE7284652E7206ABDE8F09F1CD4000050
:1007200010B5431C02E010F8011B71B18107FAD12A
:100730004FF0013202C88C1A8C4314EAC211F9D06E
:10074000C01A0A0603D0C01E10BDC01A10BD0A048C
:1007500001D0801E10BD0902FCD0401E10BD032A2E
:1007600040F2308010F0030C00F0158011F8013BCE
:10077000BCF1020F624498BF11F801CB00F8013BB5
:1007800038BF11F8013BA2F1040298BF00F801CB79
:1007900038BF00F8013B11F0030300F02580083A50
:1007A000C0F0088051F8043B083A51F804CBA0E8A7
:1007B0000810F5E7121D5CBF51F8043B40F8043BFC
:1007C000AFF30080D20724BF11F8013B11F801CB31
:1007D00048BF11F8012B24BF00F8013B00F801CB02
:1007E00048BF00F8012B704710B5203AC0F00B80CD
:1007F000B1E81850203AA0E81850B1E81850A0E825
:100800001850BFF4F5AF5FEA027C24BFB1E818507E
:10081000A0E8185044BF18C918C0BDE810405FEAEE
:10082000827C24BF51F8043B40F8043B08BF70476A
:10083000D20728BF31F8023B48BF11F8012B28BF6F
:1008400020F8023B48BF00F8012B704701F0FF037E
:10085000114601B543EA032242EA024200F00BF8D6
:1008600001BD02F0FF0343EA032242EA024200F024
:1008700002B84FF000020429C0F0128010F0030CFF
:1008800000F01B80CCF1040CBCF1020F18BF00F883
:10089000012BA8BF20F8022BA1EB0C0100F00DB832
:1008A0005FEAC17C24BF00F8012B00F8012B48BF90
:1008B00000F8012B70474FF0000200B51346944634
:1008C0009646203922BFA0E80C50A0E80C50B1F1A8
:1008D0002001BFF4F7AF090728BFA0E80C5048BFBC
:1008E0000CC05DF804EB890028BF40F8042B08BF5A
:1008F000704748BF20F8022B11F0804F18BF00F856
:10090000012B70474FF0013C50F8042B51F8043B89
:100910009A4221D1A2EB0C03934313EACC1317D1D3
:1009200050F8042B51F8043B9A4215D1A2EB0C036A
:10093000934313EACC130BD150F8042B51F8043B2A
:100940009A4209D1A2EB0C03934313EACC13DBD0F8
:100950004FF00000704700BFD01A01BAB1FA81F120
:1009600001F0180122FA01F0CB40C1F12001DBB205
:10097000C0B2C01A2CFA01F3D11A914311EAC31183
:10098000E6D17047704770477047000000487047D5
:100990007C060020704770477047704738B50446A2
:1009A0000A4600206946AFF30080002808BF38BD22
:1009B00002460099204600F018FB012038BD0120B6
:1009C00000F0C0BCF8B5AFF30080054600200C462F
:1009D000102000BF0646A819A0420DD9324669462C
:1009E0000020AFF30080070008BF00F0ABFC0098C8
:1009F000A04218BF0546C419FFF7C8FF05600746A7
:100A0000F01D20F007004619284600F0E7FAB4422E
:100A100008BFF8BDA21B31463868BDE8F84000F0B9
:100A2000E4BA70B50646FFF7B1FF056806F10B00A2
:100A300020F00704B4429CBF002070BD2B466A68BA
:100A4000BAB11068A04210D304F1080188423CBF3B
:100A50005068586007D35168101941601168091B2C
:100A6000016058601460101D70BD13465268002A62
:100A7000E7D121462846FFF791FF0028DED170BD5F
:100A80002DE9F0470D4699469246044600F12408A8
:100A90000168880604D5E06921F01001216000E0BA
:100AA0000120A84201DD471B00E00027A1697A1957
:100AB00002EB0900081AA0612078C00602D4204683
:100AC000FFF7B2FC002608E0D4E901211AF806007D
:100AD0009047206A401C761C20624E45F4DB20784B
:100AE000C0060AD52046FFF79FFC06E0D4E90121A5
:100AF00030209047206A401C2062381EA7F1010771
:100B0000F4DC07E0D4E9012118F805009047206AD9
:100B1000401C2062281EA5F10105F3DC2046FFF7EA
:100B200099FC2078000602D50220BDE8F08701205C
:100B3000FBE770472DE9FF4F0C461E464FF0FF378D
:100B40008BB0D2E90001DDF860800A908A46C1F3DB
:100B50000A5505B93D46002108464FF00000BAF19C
:100B6000000F00F4400005DA00EB80004FF4400174
:100B700001EA50004FEA9059B9F1010F00DDB94682
:100B80000A9850EA4A000ED044F61050A5F2FF35FC
:100B900045432F14B8F1000F1ED07542291E1EDDEB
:100BA000C9F100021CE0B8F1010F4FF0000001D0C4
:100BB000302103E0F24305E02154401CB042FBDB4E
:100BC00030460022002121540B99C1F80880C1E968
:100BD00000200FB0BDE8F08FBD1B6D1CDEE74A465C
:100BE00000DA694206A800F09FFA06AB93E8070016
:100BF00003AB83E8070050460A9900F017FE8DE822
:100C00000700A0F500501F3800900398002D09DD63
:100C100042F21F014A46084403A90390684601F0C6
:100C200076F808E0A0F500504A461F3803A9039063
:100C3000684601F080F88DE807000004000C03D03E
:100C40004FF0FF30410800E01046B8F1000F03D02C
:100C50000022009215461EE0751E05D400F0DFF953
:100C6000303262556D1EF9D5B3460122084302D0D9
:100C700000227F1C04E02078302801D100227F1E52
:100C8000002A099786D01DE0112D07DA00F0C7F978
:100C9000303262556D1C50EA0102F5D1084302D092
:100CA0000098C8B10EE00021681E05E0235C625C7C
:100CB00063542254401E491C8142F7DBAB46A81BFB
:100CC000401E0990002004F80B000B98099AC0F808
:100CD0000880C0E9002B7CE711264FF0000859E797
:100CE0002DE9F04F88460446D21D22F0070191B04D
:100CF000D1E90001CDE90A0102F039FA02460B9868
:100D0000C00F01D02D2007E02068810701D52B20DE
:100D100002E0202101EAC000032A099001D0072A3D
:100D200005DB03464146204600F0BEF90BE1207882
:100D3000800601D5E06900E00620B8F1650F814624
:100D400006D0B8F1660F18D0B8F1670F70D131E056
:100D50000020B9F1110F009001DB112301E009F12E
:100D600001030AAA01A90CA8FFF7E4FEDDE90C7053
:100D7000002609F10105834647E001204B4600901B
:100D80004FF000470AAA01A90CA8FFF7D3FEDDE93E
:100D90000DB00C995D46002610B909F101000D183F
:100DA000B9EB050003D4C0F1FF3609F10105A5EB4D
:100DB00009002BE0B9F1010F01DA4FF00109002021
:100DC000B9F1110F0090484601DD112300E0034600
:100DD0000AAA01A90CA8FFF7ADFEDDE90C704D468B
:100DE00000268346207800070AD4AB4500DA5D462A
:100DF00001A8012D04DD411911F8011C302907D08B
:100E00004F4502DA17F1040F04DA012082460FE0A1
:100E10006D1EEEE7002F02DCED1B3E4403E0781C64
:100E2000A84200DD7D1CB81B00F1010A4FF000470D
:100E30002078000703D4AA4501DB4FF0FF3A0021D8
:100E4000B7F1004F0DF143088DF8431024D0022074
:100E50002B23002F01DA7F422D230A21021EA0F14D
:100E6000010000DC5FB197FBF1FC97FBF1F201FBA5
:100E70001C7C17460CF1300C08F801CDEEE7A8F108
:100E8000010003702188090501D5452100E0652195
:100E9000A0F1010800F8011C09980FA9A1EB0807AF
:100EA000FF1D00B10120411901EBEA70A16938442E
:100EB000081A401EA0612078C00602D42046FFF721
:100EC000B3FA099828B1D4E901219047206A401C5F
:100ED00020622078C00622D52046FFF7A5FA1EE042
:100EE000002E04DBB34502DD01A8805D00E0302068
:100EF000D4E901219047206A401C2062761CAAF1A7
:100F000001005FEA000A0AD100F064F8C0680168D5
:100F1000405CD4E901219047206A401C2062281ED1
:100F2000A5F10105DCDC07E0D4E9012118F8010B8B
:100F30009047206A401C2062381EA7F10107F3DCAD
:100F40002046FFF787FA032011B043E601694A1CE7
:100F500002610878704700B58FB0CDE901310021FA
:100F6000059105497944CDE9031011466846FFF71C
:100F700013FB0FB000BD0000E5FFFFFF10B5436994
:100F800013B1AFF3008001E0FFF775FA012010BD47
:100F9000127800F124010A7000224A700122EDE764
:100FA00011684FF0FF32E9E7074B70B50D467B44FF
:100FB000FFF7D1FF0446284600F024F910B14FF0A6
:100FC000FF3070BD204670BD6F4A0000004870477A
:100FD000740600200048704794060020002101603C
:100FE000C0E90110704710207047034640688C46E6
:100FF000002818BF88423CBF03464068F8D31868F1
:101000001844884207D00CF1030020F00700001DAF
:10101000411A521A0146081D0A60FFF75AB930B545
:10102000B0F10A024FEA900E71F100034EEA817EA0
:10103000B0EB0E0061EB91014FEA101E4EEA017E0B
:1010400010EB0E0041EB11114FEA102E4EEA016E2B
:1010500010EB0E0041EB11214FEA104E4EEA014E0B
:1010600010EB0E0041EB1141401841F100014FEA35
:10107000D00040EA41704FEAD10110EB80054FEA01
:10108000810444EA907444EB01046D1944EB0404B8
:10109000521BA3414FF0000348BF0A3200D530BDB8
:1010A000401C41F1000130BD2DE9F0411F460446CE
:1010B00003260168072A01F4006004DB08B116A5C5
:1010C00005E016A503E008B115A500E015A521F07F
:1010D00010002060A069C01EA0610FB1401EA06179
:1010E0002046FFF7A1F94FB1D4E9012138469047D6
:1010F000206A401C2062C01C206206E0206AFAE7D9
:10110000D4E9012115F8010B9047761EF8D220464C
:10111000FFF7A0F9BDE8F0814E414E006E616E0010
:10112000494E4600696E66002DE9F0478146164635
:101130008AB0334878440DC88DE80D0030487844B3
:10114000801C03AC0DC884E80D0041F69B300844B8
:10115000372190FBF1F290FBF1F5A5F1800501FB41
:1011600012041B3C02D56442012000E00020DFF89D
:1011700090A080460027FA44AAF1BE0A0DE0E007DD
:1011800009D03246684607EB47010AEB810100F0BF
:10119000D2FD8DE8070064107F1C002CEFD1184FA2
:1011A0007F44AC3F18E0E80714D007EB04100DF1C2
:1011B000180A90E80E008AE80E00C068F04201D1DB
:1011C00098190890324606A903A800F0B4FD03ABB5
:1011D00083E807006D10641C002DE4D13246694697
:1011E000B8F1000F03A802D000F091FD01E000F07B
:1011F000A2FDC9E90001C9F808200AB0BDE8F087DE
:1012000020C90000007B00F08000704710B5424804
:101210005421FFF750FB41485421FFF74CFB404855
:101220005421FFF748FB3F493B483C4A3F4B08608D
:101230003D490A603A491960531C0365481C106512
:10124000012008653B48344A39A1784400F0CAF8C7
:1012500020B9384878440A3800F06BF937482F4AEB
:1012600035A1784400F0BEF820B9344878440A38F3
:1012700000F05FF932482A4A2FA1784400F0B2F812
:1012800020B92F4878440A3800F053F94023224807
:10129000DC000021224600F081F820B12548784486
:1012A000543800F046F91D4822464023002100F042
:1012B00075F820B121487844543800F03AF91848BC
:1012C00022461023002100F069F8002806D01C48AF
:1012D0007844BDE81040563800F02BB910BD1048D6
:1012E00070B5006D20F001040B4800F0F1F80B48D8
:1012F00000F0EEF80A4800F0EBF809E0206D20F06D
:101300000105204600F0E4F82046FEF7E2FF2C46F7
:10131000002CF3D170BD000078050020CC05002022
:1013200020060020180000201C00002020000020C3
:10133000720000002E9F0000770000001C9F00003C
:101340000B9F000010B500F0FBF8BDE8104000F066
:10135000EBB87546FFF73AFEAE46050069465346C0
:1013600020F00700854618B020B5FEF78BFFBDE8DA
:1013700020404FF000064FF000074FF000084FF0FC
:10138000000B21F00701AC46ACE8C009ACE8C0098D
:10139000ACE8C009ACE8C0098D46704770B5C468B8
:1013A000A50713D0650211D4B2F5807F09D0B2F53C
:1013B000007F06D0B2F5806F08D1012300F124012F
:1013C00006E05D1E6FF07F46B54201D3012070BD7F
:1013D0000161C361416024F470611143C160002068
:1013E00070BD00002DE9F0410C4607461646104638
:1013F00000F06EF82078611C61280AD0722802D0B3
:1014000077283CD102E00125002405E002250424D0
:1014100002E0082448F2020511F8010B2B2806D03F
:10142000622809D011F8010C74280AD00BE045F0AD
:10143000030544F00204EFE745F0040544F001041D
:10144000EAE744F010043846214601F0C6FE411C8C
:1014500015D00021316171604FF40071F560F161C8
:101460007061200704D530460222002100F090F878
:10147000306D40F0010030653046BDE8F08100205D
:10148000FBE72DE9F0410D460646104C206DC107E3
:1014900004D0410804D020F00104F7E722460EE012
:1014A0005420FFF7BEFA07000ED0206D47F001016F
:1014B0000843542120653846FFF7FDF93A4629468E
:1014C0003046BDE8F0418DE70020D6E778050020E2
:1014D0002DE9F04704464FF000094FF0FF37C5688B
:1014E000D4E90486A80707D0204600F001F9304669
:1014F00001F06CFE002802DA3846BDE8F0872805C6
:1015000002D54046FEF7E5FE4C212046FFF7D3F911
:10151000206D20F0010020654846EEE70446AFF359
:1015200000802046FEF79AFE002801D001F050BE50
:10153000704710B500F03AF9BDE81040FFF7F4BF6E
:1015400010B5012805D0002103A000F015F90120F5
:1015500010BD09A1F8E7000053494752544D454DCD
:101560003A204F7574206F662068656170206D6544
:101570006D6F7279000000003A2048656170206D3F
:10158000656D6F727920636F727275707465640037
:101590002DE9F041044616460D464769007B800759
:1015A0002ED0384601F017FE50BB3EB3012E02D0BC
:1015B000022E25D104E0204600F012F905441DE07A
:1015C000384601F006FEE168002841F01001E160B4
:1015D00005DA204600F058F80120BDE8F081C90383
:1015E0000BD56268E16A914200D81146A2691144A4
:1015F0002269891A814200DD08460544002D01DA7E
:101600000220EAE7E16A6068E268814206D291035B
:10161000E06203D522F4003141F01002A6690027F0
:10162000AE4213DCE16A814201D90B4600E0034679
:1016300003EB060C2369ACEB030CAC4506DD8142E1
:1016400001D98C4600E084469C4505D1A7602760FF
:1016500042F02000A5620DE0AD1BE669AE1B8142A1
:10166000A66000D90846C01A281A20605819606080
:1016700022F0200003490840E060002084F8487010
:10168000ABE70000BFCFD7FFC16821F4001141F0E4
:101690008001C16000218160016070472DE9F04741
:1016A000814614460E464FF0FF383248D5685769D8
:1016B000054209D03846A16901F092FD002811DBEE
:1016C0002C48C0430540E5602B4632464946384623
:1016D00001F089FDA16920F00042B21A11440028EE
:1016E000A16103D02046FFF7CFFF4046BDE8F08759
:1016F00070B504460569C06A6168884200D808462A
:10170000E16821F42011E160C90312D5A84208D094
:101710002246411B2846FFF7C1FF10B14FF0FF30B2
:1017200070BD0020E562C4E90150E06820F480301B
:10173000E060002070BD10B50446C06820F02000B5
:10174000E060A16AA06988420DD02046FFF7D0FF73
:10175000E06820F4405040F01000E060A06AA06112
:101760002069E062606044F24001E0688843E06024
:1017700010BD00001000020070B505460C460A209E
:1017800000E06D1C01F031FD35B128780028F8D15A
:1017900002E0641C01F029FD14B120780028F8D182
:1017A000BDE870400A2001F020BD000010B50146E0
:1017B00002A0FFF7E1FF012010BD0000534947528E
:1017C000545245443A2052656469726563743A2004
:1017D00063616E2774206F70656E3A200000000010
:1017E00010B50146C268900703D0900607D5886AF5
:1017F0000AE000F017F801210160881E10BD8B6916
:10180000486818440B69C01A91F848301BB191F828
:101810004910401A10BD1103FCD50028FADD401E06
:1018200010BD000000487047740600205FEA400CBD
:1018300008BF91F0000F4FEA8C234FEAC12243EA20
:1018400051514FEA1C5018BF00F5F0404FEA3000EC
:1018500018BF41F000415FEA6C5C00F02980BCF1E8
:10186000FF3F08BF40F080407047130C06BF1204D2
:101870004FF0100C4FF0000C130E04BF12020CF1CD
:10188000080C130F04BF12010CF1040C930F04BFDA
:1018900092000CF1020CD30F04BF52000CF1010CAA
:1018A00011464FF00002A0F11F00A0EB0C007047A2
:1018B00011F0004F08BF704731F000413FF4D5AF41
:1018C0000B0C06BF09044FF0100C4FF0000C0B0E70
:1018D00004BF09020CF1080C0B0F04BF09010CF145
:1018E000040C8B0F04BF89000CF1020CCB0F04BF5A
:1018F00049000CF1010CCCF12003A0EB0C0022FA02
:1019000003F302FA0CF241EA030100F1010070470F
:1019100020F07F4C80EA030023F07F47ACEB070305
:1019200003F57C5300F0004003F1FF032DE98049EB
:101930004FEA154B09B44FEA144325EA0B4E24EA4B
:1019400003480FF2042606EB132749083E785FEAA6
:10195000320203FB0667C7F5000707FB06F64FEAEE
:1019600054374FEAD64606F1020607FB066CCCF167
:10197000005C4FEA1C472CEA074C07FB06F40CFB03
:1019800006F504EB15464FEA961634BF00204FF0DB
:1019900000404FEAD13706FB07FC4FEA1C4C0CFB1A
:1019A0000BF7D21B03FB0CF761EB07010CFB0EF7E7
:1019B000B0EB074072EB17420CFB08F734BFA2EB09
:1019C0000742B2EB074261EB17414FEA0C444FEA82
:1019D000910706FB07FC4FEA1C4C0CFB0BF7B0EB26
:1019E000C74072EB573203FB0CF734BFA2EBC74280
:1019F000B2EBC74261EB57310CFB0EF7B0EBC700FF
:101A000072EB57720CFB08F734BFA2EBC702B2EBC4
:101A1000C70261EB5771039F4FEA816141EA92115E
:101A200004EBCC044FEAD1374FEA826206FB07FC95
:101A300042EA90124FEA80604FEA1C4C0CFB0BF715
:101A4000D21B03FB0CF761EB07010CFB0EF7B0EBAD
:101A5000074072EB17420CFB08F734BFA2EB0742BA
:101A6000B2EB074261EB17414FEA8C554FEA910701
:101A700004EB9C2406FB07FC4FEA1C4C0CFB0BF709
:101A8000B0EBC74072EB573203FB0CF734BFA2EB4D
:101A9000C742B2EBC74261EB57310CFB0EF7B0EB1C
:101AA000C70072EB57720CFB08F734BFA2EBC702FA
:101AB000B2EBC70261EB577115EB4C254FEA816120
:101AC00041EA92114FEA82624FEAD13742EA90121C
:101AD00006FB07FC44F100044FEA80604FEA1C4C0F
:101AE0000CFB0BF7D21B03FB0CF761EB07010CFBA4
:101AF0000EF7B0EB074072EB17420CFB08F734BF50
:101B0000A2EB0742B2EB074261EB174115EB1C1544
:101B10004FEA813141EA92414FEA823242EA9042F1
:101B20004FEA80304FEA0C7644F1000448EA034360
:101B30004EEA0B484FF0000EB2EB080C71EB0307B6
:101B400024BF624639464EEB0E0E4FF0000B0018D4
:101B5000524149414BEB0B0BB2EB080C71EB030705
:101B60007BF1000B24BF624639464EEB0E0E4FF060
:101B7000000B0018524149414BEB0B0BB2EB080C28
:101B800071EB03077BF1000B24BF624639464EEB35
:101B90000E0E51EA020718BF46F0010616EB0E764C
:101BA00055F1000254F1000103D5BDE88901BDE8FB
:101BB0000088BDE88901BDE80048B619524141EBF3
:101BC0000101A3F10103704780807F7E7D7C7B7AD9
:101BD0007978777676757473727171706F6E6E6DD9
:101BE0006C6C6B6A6A69686867666665646463637F
:101BF00062616160605F5F5E5E5D5D5C5C5B5B5A05
:101C00005A59595858575756565555555454535371
:101C100052525251515050504F4F4F4E4E4D4D4DCC
:101C20004C4C4C4B4B4B4A4A4A4949494848484717
:101C30004747474646464545454444444443434355
:101C40004342424242414141002B26D4770021D0F9
:101C50001CB54FEA370703B44FF010004FF01001E6
:101C60004FF000000FBCBDE810400BF1010BBBF1C1
:101C7000010F08BF5FEA170722BF12F1010211F13D
:101C800001014FF0004143F1000300F0004043EA3E
:101C900000007047F9D35708DAE746EA064613F121
:101CA000400F4FEA16461FDD13F1200FDFBF16432A
:101CB0000A46002120335B42C8D0C3F1200746EA20
:101CC000064602FA07F74FEA164646EA0706C3F148
:101CD000200722FA03F201FA07F721FA03F14FF085
:101CE000000342EA0702B1E746EA020646EA064670
:101CF0004FEA164646EA0106BCBF46EA0646360CDF
:101D00004FF000034FF000024FF000019EE72DE975
:101D1000C048934630B491E8380007C831EA400C17
:101D200048BF34EA430C03D5FFF7F2FDFFF78CFF01
:101D3000F0BCBDE800882DE9C048934630B491E876
:101D4000380007C810F0804F08BF13F0804F03D150
:101D500000F005F8FFF778FFF0BCBDE8008820F040
:101D60007F4780EA030023F07F4C07EB0C03A3F5C9
:101D70007C5300F00040A3F1FE0392F0000F00F04E
:101D8000B38095F0000F00F077802DE901494FEA0C
:101D900011404FEA144621EA004800FB06FC24EA01
:101DA000064708FB06F607FB08F800FB07F718EBE9
:101DB00006484CEB164C4FEA124B18EB07484FEA1B
:101DC00015464CEB174022EA0B4E0BFB06FC25EAAE
:101DD00006470EFB06F607FB0EFE0BFB07F71EEB96
:101DE000064E4CEB164C4FF000061EEB074E4CEB2C
:101DF000174B18EB0B0840F1000018EB0E0B58EBDB
:101E0000000840F100008F1A4FF000013CBFC943A9
:101E1000661B14BFB5EB040C00213CBFC943F61B85
:101E20004FEA17444EEA8E0E27EA04454FEA1C4754
:101E300004FB07622CEA074C05FB07F70CFB05F6D1
:101E400004FB0CFC16EB074642EB174216EB0C4664
:101E500042EB1C421BEB060658EB0202414146EAEC
:101E60009E0601D5BDE80189B619524141EB010139
:101E7000A3F10103BDE801894FEA14454FEA114778
:101E800024EA054621EA074C05FB07F406FB07F7A1
:101E90000CFB06F105FB0CFC11EB074144EB17446E
:101EA0004FEA124711EB0C4144EB1C4422EA074C69
:101EB00005FB07F206FB07F70CFB06F605FB0CFC1F
:101EC00016EB074642EB174216EB0C4642EB1C455D
:101ED0006A1854F1000148BF7047B619524141EBEE
:101EE0000101A3F10103704795F0000F37D04FEACD
:101EF00011424FEA144721EA024624EA074C02FB4A
:101F000007F106FB07F70CFB06F402FB0CFC14EBD5
:101F1000074441EB17414FEA154714EB0C4441EBE2
:101F20001C4125EA074C02FB07F506FB07F70CFBF3
:101F300006F602FB0CFC16EB074645EB174516EBC5
:101F40000C4645EB1C42121951F1000148BF704785
:101F5000B619524141EB0101A3F1010370474FEA69
:101F600014454FEA114724EA054621EA074C05FBD0
:101F700007F106FB07F70CFB06F24FF0000605FB26
:101F80000CFC12EB074241EB174112EB0C4251EBF8
:101F90001C4148BF7047921841EB0101A3F10103B6
:101FA0007047FEE7704772B6FEE72DE9F041044640
:101FB000876D00F04DF9064694F83500002502289B
:101FC00006D08020606584F834500120BDE8F0819F
:101FD0002068016821F0160101602068416921F044
:101FE00080014161206C08B9A06C20B120680168B3
:101FF00021F0080101602068016821F00101016001
:102000000CE000F025F9801B052807D92020606529
:10201000032084F8350084F83450D7E7206800683E
:10202000C007EED194F85C103F208840B8600120D2
:1020300084F8350084F834500020C7E790F8351054
:10204000022903D08021416501207047052180F8D5
:1020500035100068016821F001010160002070471F
:102060002DE9F84FDFF8BCA10022012503264FF02F
:102070000F090AF1040BAAF1040E00BF0B6805FA60
:1020800002F42340A34270D10F7907F00307012F18
:1020900001D0022F16D187684FEA420806FA08FCE1
:1020A00027EA0C07D1F80CC00CFA08FC4CEA070C24
:1020B000C0F808C04768A7430C79C4F300149440E3
:1020C0003C4344600C79E443A4070AD0C4684FEA57
:1020D000420C06FA0CF7BC438F6807FA0CF727434B
:1020E000C7600C7904F00304022C12D1D40800EB71
:1020F000840CDCF820405707FF0E09FA07F824EAA1
:102100000804D1F8108008FA07F848EA0408CCF867
:10211000208004684FEA420C06FA0CF7BC430F79A2
:1021200007F0030707FA0CF7274307604C6814F41D
:10213000403F70D03C4C276847F4804727602468B4
:1021400022F0030704F480440094384C07EB040C9D
:10215000DCF8084897074FEA177809FA08F7BC43F4
:10216000334FB84202D1002724E054E0314FB84247
:1021700001D101271EE0304FB84201D1022719E0FA
:102180002E4FB84201D1032714E02D4FB84201D1A0
:1021900004270FE02B4FB84201D105270AE02A4F50
:1021A000B84201D1062705E0284FB84201D10727E0
:1021B00000E0082707FA08F72743CCF80878DAF890
:1021C00000405746D1F804C09C435FEACC2C00D5B0
:1021D0001C433C60DBF800405F46D1F804C09C43E0
:1021E0005FEA8C2C00D51C433C60DEF8004077464B
:1021F000D1F804C09C435FEA8C3C00D51C433C6092
:10220000084F083F3C68D1F804C09C435FEACC3CCF
:1022100000D51C433C60521C102AFFF42FAFBDE8D0
:10222000F88F0000083C0140443802400030014073
:10223000000002400004024000080240000C02407E
:10224000001002400014024000180240001C02402E
:102250000148806870470000000000200248816843
:102260000278114481607047000000200B4810B5CF
:10227000016841F400710160016841F4806101600E
:10228000016841F480710160032000F06FF80F20B5
:1022900000F006F800F024F8002010BD003C0240D9
:1022A00070B50D4D04464FF47A712878B1FBF0F00B
:1022B0000A490968B1FBF0F000F078FB48B9102C2E
:1022C00007D200222146501E00F030F800206C603A
:1022D00070BD012070BD0000000000200C00002037
:1022E0000A4808B5016841F480410160006800F4C3
:1022F000804000900548001F016841F08051016056
:10230000006800F08050009008BD00004438024092
:10231000002809DB00F01F020121914040098000E4
:1023200000F1E020C0F8001170470000F0B40E4B3F
:102330001B680C46C3F30223C3F10705042D00D923
:102340000425191D072901D2002300E0DB1E012608
:1023500006FA05F1491E214099409E40761E16401E
:102360003143F0BC00F01BBF0CED00E0064900F06B
:10237000070208684FF6FF03184040EA0220034AAC
:1023800010430860704700000CED00E00000FA0503
:102390002DE9F0470E46050065D0DFF81481D8F826
:1023A0000000F7B200F00700B04207D288F80070D2
:1023B000D8F8000000F00700B04254D128683D4C26
:1023C000810712D5400703D5206840F4E050206013
:1023D0002878000703D5206840F46040206020681A
:1023E000A96820F0F000084320602878C0072DD0AD
:1023F000304968680839012812D0022813D0032810
:1024000011D00968890700292DDA216821F003011C
:1024100001432160FFF71CFF814641F2883A0EE03C
:1024200009688903EFE709688901ECE7FFF710FF06
:10243000A0EB0901514502D90320BDE8F0872068CF
:10244000696800F00C00B0EB810FEFD1D8F80010F4
:10245000404601F00701B14207D90770006800F05B
:102460000700B04201D00120E7E72878400705D5F2
:102470002068E96820F4E0500843206028780007CD
:1024800006D52068296920F4604040EAC100206038
:1024900000F038F82168084AC1F30311515CC840C4
:1024A0000649086006480068FFF7FAFE0020C4E706
:1024B000003C02400838024090B100080C000020A7
:1024C000040000200448054900680968044AC1F373
:1024D0008221515CC84070470C000020083802403F
:1024E000A0B100080448054900680968044AC1F31E
:1024F0004231515CC84070470C000020083802404F
:10250000A0B10008154810B5006810F00C0214487E
:1025100013D01449042A0FD0082A0ED10F4C241FBF
:102520002268236802F03F025B0207D52068C0F3EF
:102530008810A0FB010106E0084610BD2168C1F328
:102540008811A1FB00010023FDF7EAFE2168C1F319
:102550000141491C4900B0FBF1F010BD08380240B0
:102560000024F40040787D012DE9F84F04006ED07E
:102570002078DFF84C93C007A9F104054AD009F18F
:1025800004000168C1F38101012908D00068C0F38B
:10259000810002280AD1D9F80000400206D5286837
:1025A000800337D560680028E1D033E06068B0F57B
:1025B000803F10D0B0F5A02F286810D020F48030D4
:1025C0002860286820F4802028606068A8B1FFF7A0
:1025D0003FFE06460DE0286840F48030F4E740F402
:1025E00080202860F7E700BFFFF732FE801B6428D9
:1025F00073D828688003F7D50CE0FFF729FE06465C
:1026000005E000BFFFF724FE801B6428F0D828688F
:102610008003F7D42078DFF8AC8280074FF0000AFF
:102620003ED5A748001D016811F00C0F08D00068C6
:10263000C0F3810002280BD1D9F80000400207D472
:102640002868800716D5E068012800D112E033E140
:10265000E068B8B10120C8F80000FFF7F9FD0646B0
:1026600005E000BFFFF7F4FD801B0228C0D82868F2
:102670008007F7D52868216920F0F80040EAC100FA
:1026800028600DE0C8F800A0FFF7E2FD064604E070
:10269000FFF7DEFD801B02281FD828688007F7D4CB
:1026A0002078000722D5864F87486169703771B15D
:1026B00001210160FFF7CCFD064604E0FFF7C8FDED
:1026C000801B022809D838688007F7D50EE0C0F8CB
:1026D00000A0FFF7BDFD064605E082E0FFF7B8FD6C
:1026E000801B02287DD838688007F7D420784007FF
:1026F00068D5DFF8CCB100270BF13C0BDBF800000C
:10270000C0000BD4DBF8001041F08051CBF8001072
:10271000DBF80000012700F0805000906B4E30681D
:10272000C00510D4306840F480703060FFF790FD31
:10273000009005E0FFF78CFD0099401A022850D860
:102740003068C005F6D55E4EA0686C3601280FD003
:102750000528306810D020F001003060306820F08B
:1027600004003060A068B8B1FFF772FD00900FE080
:10277000306840F00100F4E740F004003060F7E713
:10278000FFF766FD0099411A41F28830814266D810
:1027900030688007F4D50EE0FFF75AFD009007E09F
:1027A000FFF756FD0099411A41F28830814256D810
:1027B00030688007F4D42FB1DBF8001021F080518D
:1027C000CBF80010A069C8B33D49091D0968C1F3E1
:1027D000810102294AD00228504607D0C8F860007B
:1027E00000E03CE0FFF734FD04463BE04746C8F814
:1027F0006000FFF72DFD064605E000BFFFF728FD4E
:10280000801B02282BD828688001F7D4D4E907015F
:102810000843A16A2E4A490802EB0141626A41EA73
:102820008211084394F82C1040EA0161C9F80010A5
:1028300001203866FFF70CFD044606E03EE000BFCD
:10284000FFF706FD001B022809D828688001F7D58C
:1028500034E000BFFFF7FCFC001B022802D9032074
:10286000BDE8F88F28688001F4D427E00128F7D06C
:10287000D9F80000E26900F4800191421CD1226A7B
:1028800000F03F01914217D147F6C071626A0140E2
:10289000B1EB821F10D1A26A4FF0FF3300F4403138
:1028A00003EB5202B1EB024F06D194F82C1000F06A
:1028B0007060B0EB016F01D00120D1E70020CFE7BD
:1028C0000438024000004742800E4742007000403A
:1028D0000000FFFF2DE9F0470446007900278A46F3
:1028E00001280ED00125257160794FF000090128DB
:1028F00009D00420A060012784F804903846BDE880
:10290000F0870220FBE74FF0020884F80580FFF70C
:102910009FFC064611E000BFFFF79AFC801B0228CF
:102920000BD920684068C043C00706D06571C4F861
:10293000088084F804900120E1E720684068C043E3
:10294000C007E9D120688068E060CAF800006571BE
:10295000D2E770B5040003D06079002510B105E01E
:10296000012070BD2571204600F00CF80220607136
:102970002068016841F00401016001206071A560D8
:10298000002070BD08B500680649884208D1064895
:10299000016841F040010160006800F040000090D3
:1029A00008BD0000000806503438024010B5401E33
:1029B000B0F1807F01D3012010BD4FF0E0246061B1
:1029C0000F21601700F0EBFB0020A06107202061C1
:1029D000002010BD70477047F8B5016804460868CC
:1029E000CA684B6910F00F0F4FF000055AD003F082
:1029F000010602F49077374365D0C10705D0D105B1
:102A000003D5216C41F001012164410705D5D907A7
:102A100003D0216C41F002012164810705D5D9075B
:102A200003D0216C41F004012164010707D502F0B5
:102A30002001314303D0216C41F008012164216C55
:102A400000293BD0800604D5900602D5204600F030
:102A500064FA20684069216CC0F3801001F008011D
:102A6000014320462BD000F031FA2068406940062F
:102A700021D52068143050E8001F21F0400140E8C3
:102A80000012002AF5D1A06BA8B16C490165A06BBA
:102A9000FFF7D4FA002811D0A06B016D01B0BDE89A
:102AA000F040084783060ED593060CD52046BDE8B6
:102AB000F84000F032BA2046FFF78DFFF8BDFFF76F
:102AC0008AFF2564F8BD266B2023012E79D1C60626
:102AD00077D5D60675D508684868009048694006DD
:102AE00040D5A16B086840680004000CEAD0A28DB4
:102AF0008242E7D9E085C869B0F5807F2DD0206893
:102B00000C3050E8001F21F4807140E80012002AC8
:102B1000F5D12068143050E8001F21F0010140E891
:102B20000012002AF5D12068143050E8001F21F06F
:102B3000400140E80012002AF5D184F83E302563B8
:102B400020680C3050E8001F21F0100140E800120E
:102B5000002AF5D1A06BFFF728FAA08DE18D401A6D
:102B600081B229E0A08DE18D401A81B2E08D00286C
:102B7000A8D00029A6D020680C3050E8002F22F4FD
:102B8000907240E80026002EF5D12068143050E8FD
:102B9000002F22F0010240E80026002EF5D184F833
:102BA0003E30256320680C3050E8002F22F01002E0
:102BB00040E80023002BF5D12046FFF70BFFF8BDBE
:102BC000FFE705062BD5150629D594F83D002128E9
:102BD000F5D1A068B0F5805F01D12069B0B1206A5D
:102BE000411C2162216800784860E08C401E00048E
:102BF000000CE084E3D12068C16821F08001C1604D
:102C00002068C16841F04001C160D8E7206A0088AF
:102C1000C0F308004860206A801C2062E5E7400697
:102C2000CDD55006CBD5CA68204622F04002CA60F6
:102C300084F83D3000F0CFF8C1E70000BD2E000859
:102C400070B5040004D094F83D00002510B106E0F2
:102C5000012070BD84F83C50204600F023F8242069
:102C600084F83D002068C16821F40051C16020460D
:102C700000F0B4F92068016921F4904101612068F5
:102C8000416921F02A0141612068C16841F4005185
:102C9000C1602564202084F83D0084F83E000020B7
:102CA00070BD000010B586B0044614216846FDF7DB
:102CB00002FE18492068884229D11748002102687D
:102CC00042F010020260006800F010000590124807
:102CD0001438026842F001020260006800F001004E
:102CE00005904FF4C06000900220CDE9010103205F
:102CF00003900720049069460848FFF7B1F90022C5
:102D000011462520FFF712FB2520FFF701FB06B037
:102D100010BD000000100140443802400000024095
:102D2000704700002DE9F843044690F83D001F4627
:102D300016460D4620284CD1C5B1BEB194F83C00D2
:102D4000012846D0012084F83C004FF00008C4F868
:102D50004080212084F83D00FFF77AFAA68481465E
:102D6000E684A068B0F5805F03D004E00120BDE8F0
:102D7000F883206928B12E465FF0000584F83C8076
:102D80000EE00026FAE78021204600F0ADF9A0B958
:102D9000AEB116F8010B21684860E08C401EE0845B
:102DA000E08C4B464FF0000200970028EBD14FF02B
:102DB0004001204600F098F930B10320D7E735F8FC
:102DC000020BC0F30800E6E7202084F83D00002055
:102DD000CDE70220CBE77047FEE7000010B50948B9
:102DE00007F0D2F90748BC3007F0CBF9064807F0E6
:102DF000CEF9064803F06AFABDE81040044803F033
:102E000045BF0000E0000020F4010020280300205E
:102E100068040020FEE7FEE770477047FFF71EBA20
:102E200010B592B030216846FDF745FD14210CA87D
:102E3000FDF741FD1B480024016841F0805101600D
:102E4000006800F0805011901748016841F48041FB
:102E500001600068012100F480401190022003917C
:102E60001021009004910690CDE90741C021CDE9E1
:102E7000091004200B906846FFF776FB08B172B684
:102E8000FEE70F20CDE90C040E940F9400210CA84E
:102E90001094FFF77DFA002801D072B6FEE712B059
:102EA00010BD000040380240007000400248016838
:102EB00041F470010160704788ED00E010B5806B4F
:102EC0000021C185C184FFF786FD10BD01680C316A
:102ED00051E8002F22F4907241E80023002BF5D135
:102EE0000168143151E8002F22F0010241E800236B
:102EF000002BF5D1016B012909D101680C3151E892
:102F0000002F22F0100241E80023002BF5D12021F0
:102F100080F83E1000210163704708B590F83E101C
:102F2000222901D0022008BD82684FF480539A42C2
:102F300001D1016921B1816A9A421BD04AB10AE0EC
:102F40000268816A5268C2F308020A80816A891C99
:102F500008E0026972B10268526802F07F020A70EA
:102F6000816A491C8162C18D491E0904090CC18511
:102F700003D019E002685268F1E70168CA6822F0DC
:102F80002002CA600168CA6822F48072CA600168BF
:102F90004A6922F001024A61202180F83E10016B4B
:102FA000012903D0FFF7BCFE002008BD002101630A
:102FB00001680C3151E8002F22F0100241E8002393
:102FC000002BF5D101680A68D20602D50A68496863
:102FD0000091818DFFF7FEFCE6E7000070B5044626
:102FE00000680169E26821F44051114301612169DF
:102FF000A068E26908436169114308432168CA680F
:1030000049F20C639A430243CA6020684169A2698D
:1030100021F440711143416131492068884202D056
:103020003049884202D1FFF75DFA01E0FFF74AFA22
:10303000E2690023192164253226B2F5004F626847
:1030400028D0A0FB0101930F9200FDF769F901461A
:10305000B0FBF5F06FF01802504301EB800006EB77
:103060000010B0FBF5F000F0F002B1FBF5F002EB60
:103070000012B1FBF5F06FF01803584301EB80002C
:1030800006EB0010B0FBF5F000F00F0021681044D3
:10309000886070BDA0FB010192185B41FDF740F90B
:1030A0000146B0FBF5F00201B1FBF5F06FF018033B
:1030B000584301EB800006EBC000B0FBF5F000F0D8
:1030C000F80002EB4002B1FBF5F0584301EB800041
:1030D00006EBC000B0FBF5F000F00700D6E70000FB
:1030E00000100140001401402DE9F04198461746B8
:1030F0000E460446069D27E0681C25D02DB1FFF73B
:10310000A7F8A0EB0800A8421ED920680C3050E8B0
:10311000001F21F4D07140E80012002AF5D1206888
:10312000143050E8001F21F0010140E80012002A8D
:10313000F5D1202084F83D0084F83E00002084F87A
:103140003C000320BDE8F0812068006836EA0000FA
:1031500004D00020B842CFD00020F3E70120F9E7E7
:103160000148FFF739BC000034000020FEE703B43B
:1031700001984100009850EAC12018BF04204A0D70
:1031800018BF40F0010040F2FF72B2EB515F08BF80
:1031900040F00200012808BF052002B0704709076F
:1031A000090E002804DB00F1E02080F800147047CD
:1031B00000F00F0000F1E02080F8141D7047303857
:1031C0000A2801D201207047002070470020704774
:1031D000FEE700207047012070474FF48070704771
:1031E0004FF0FF30704700207047FEE703680B4444
:1031F000036092F900008B4201D2012100E000211E
:103200000844107070472DE9F04FADF5477D154625
:103210000E468346B2F5C07F05D96FF037000DF535
:10322000477DBDE8F08F4FF4D0716846FDF743FB52
:1032300068A802F05EFF280E8DF81000280C8DF8AB
:103240001100280A8DF8120030208DF8170006AC06
:103250008DF813502A4631462046FDF780FA80202B
:10326000605505F119080020BEA90854401C20280B
:10327000FBDB4FF4807268A802F040FF070052D1D8
:103280000025AA466E46CDF8B8A2CDF8BCA2CDF86E
:10329000C0A244460DF52E79CDF8C4A217E0002057
:1032A0004946335C0A5C5A400A54401C1028F8DB3B
:1032B0001036102C01D3102000E02046241AAEABAB
:1032C0001A46012168A802F001FF07002BD1002C4B
:1032D000E5D1B2A828441022AEA9FDF740FA9DF826
:1032E00003001035401C8DF80300302DCADB4FF46D
:1032F0008072B2A968A802F001FF070013D1BAAD2D
:103300005C4600262B461A46012168A802F0DEFE24
:10331000070008D1102229462046FDF720FA103474
:103320001036302EEEDB68A802F0DCFE4FF4D071D0
:10333000684606F047FB3021B2A806F043FB202187
:10334000BEA806F03FFB1021AEA806F03BFB1FB164
:103350003021584606F036FB384660E72DE9F04349
:103360008DB0884604466E4630213046FDF7A3FAFC
:10337000002504F120091020211811F8012D521CFC
:1033800012F0FF020A7002D1401E0028F4DC33461E
:1033900022460121484602F099FE070018D1103557
:1033A0001036302DE7DB694618F800200B5C5340DF
:1033B0000B54401C3028F7DB4FF48072484602F073
:1033C0009DFE070004D108AD95E80F0084E80F00CA
:1033D0003021684606F0F6FA0DB03846BDE8F083B5
:1033E0002DE9F0410546C06D1746C01DC4080E46C4
:1033F000A34200D81C4622463946304606F005F85E
:10340000070018D1E86DB0EBC40F06D2C0EBC401C1
:10341000304606F0ADF907000DD105F14C010C4620
:10342000304605F0F1FA002805DB31462246084611
:1034300006F069FA07463846BDE8F0812DE9F0410B
:1034400000240D4606464F1E0CE0BC4201D108A3E5
:1034500000E008A3325D200708D007A107A0FCF711
:10346000D7FF641CAC42F0D3BDE8F08106A1F5E7BC
:103470000D0A000000000000200000002573253028
:1034800032582573000000000D0A09002DE9FF4F96
:1034900099B0054614A80390686D17AF18AE8B4617
:1034A00088B101211C9805F097FA002807DB05F187
:1034B0004C010D911C9805F0A7FA002805DB4E4839
:1034C0001DB0BDE8F08F4D48FAE704A803F0D0FA2C
:1034D00014A805F08FFD0EA805F08CFD11A805F0CD
:1034E00089FDDFF814914FF00008A9F18009CDF8AB
:1034F0005C8001CF0A2806DC05F1280AC6F80080A6
:1035000001CE0A2801DD4C4667E0DDE92823284684
:10351000039903F097F804005FD1DDE928128DE8E4
:103520000601534604A92846039A03F0DDF9040076
:1035300053D104A958460D9A05F0C9FE04004CD198
:103540000021584605F048FA0028D9D0DDE92623A5
:103550000EA92846FFF744FF04003ED1DDE92823E9
:1035600011A9284603F06EF8040036D1DDE91B02EC
:10357000594605F0E9FE04002FD10EA908461B9A12
:1035800005F0B8F9040028D10EA911AA084605F0E3
:10359000DBFE040021D1039911AA084605F0D4FEF0
:1035A00004001AD10D9A03991B9805F029FD040017
:1035B00013D11B990EAA084605F0C6FE04000CD1D3
:1035C0001B990D9A084605F082FE040005D10021E2
:1035D0001B9805F001FA00288BD004A803F038FAF4
:1035E00014A805F03EFC0EA805F03BFC11A805F060
:1035F00038FC204664E7000080B3FFFF80B0FFFF87
:103600002DE9F04F9DB00546994614468A460DF1C6
:10361000580819AF03A8DDF89CB003F029FA13A8E5
:1036200005F0E8FC10A805F0E5FC16A805F0E2FCA2
:1036300019A805F0DFFC686D18B30121269805F084
:10364000CBF93B4E002860DB05F14C010C9126982C
:1036500005F0DAF9002858DA0121584605F0BCF9DE
:10366000002852DB58460C9905F0CEF900284CDAB8
:103670002346524613A92846FFF7B2FE040045D15F
:1036800003E02C481DB0BDE8F08F594610A80C9AF5
:1036900005F0B6FC040039D110AA13A9404605F084
:1036A00053FE040032D1414608460C9A05F00FFE45
:1036B00004002BD110AA3846269905F045FE0400D7
:1036C00024D1394608460C9A05F001FE04001DD1AC
:1036D00000210097CDE9019105F12803424603A995
:1036E000284603F077F9040010D103A803F0CAF8C4
:1036F00058B903A908460C9A05F0E9FD040005D164
:1037000003A8269905F080F900B1344603A803F018
:103710009FF913A805F0A5FB10A805F0A2FB16A8B9
:1037200005F09FFB19A805F09CFB2046AAE70000C6
:1037300000B2FFFF80B0FFFF2DE9F0430546884649
:1037400002F1180095B01E4617460021814605F08B
:1037500043F998B1306AC0B106F11800002104465F
:1037600005F03AF960B1306A78B10121204605F0E0
:1037700033F950B1C54815B0BDE8F083314600E0DB
:103780003946404602F022FFF5E7684605F032FC74
:1037900009A805F02FFC03A805F02CFC0FA805F0E4
:1037A00029FC06A805F026FC0CA805F023FC12A8AD
:1037B00005F020FC4A461146684605F0C5FD0400A8
:1037C00071D12946684601F05DFB0400F8D14A46F4
:1037D000694609A805F0B8FD0400F1D1294609A8F9
:1037E00001F050FB0400EBD169463246084605F073
:1037F000ABFD0400E4D12946684601F043FB040018
:10380000DED109A906F10C02084605F09DFD040071
:10381000D6D1294609A801F035FB0400D0D169466C
:103820003A46084606F06FF804E069462A1D084645
:1038300005F060F80400C3D10098002805DA0021E3
:10384000684605F0C9F80028EFD107F10C0209A974
:103850001646084606F057F804E009A92A1D08464E
:1038600005F048F80400ABD10998002805DA0021DA
:1038700009A805F0B1F80028EFD10021684605F04D
:10388000ABF838B16A46494612A805F05DFD040060
:1038900096D10FE0002109A805F09EF820B140461E
:1038A00003F046F9D9E097E03A464146284600F051
:1038B00083FBD2E0294612A801F0E4FA040085D186
:1038C0006A46114603A805F03FFD040085D129464C
:1038D00003A801F0D7FA04007ED16A4603A90FA815
:1038E00005F032FD040077D129460FA801F0CAFA8D
:1038F000040071D103A93A46084605F025FD0400ED
:103900006AD1294603A801F0BDFA040064D102225D
:1039100003A9684605F00CFD04E069462A1D084627
:1039200005F0A3FF040057D1291D684605F06CF887
:103930000028F2DA09AA114606A805F005FD0400E0
:103940004AD1294606A801F09DFA040044D106A9EF
:103950006A46084605F0D7FF04E006A92A1D084676
:1039600004F0C8FF040079D10698002805DA002188
:1039700006A805F031F80028EFD106A90FAA0846DD
:1039800005F0C1FF04E006A92A1D084604F0B2FFB5
:10399000040063D10698002805DA002106A805F086
:1039A0001BF80028EFD103A906AA084605F0ABFFD3
:1039B00004E003A92A1D084604F09CFF04004DD131
:1039C0000398002805DA002103A805F005F800286F
:1039D000EFD109AA03A900E040E0084605F0B4FCD5
:1039E00004003BD1294603A801F04CFA040035D16C
:1039F0000FA93246084605F0A7FC04002ED129463F
:103A00000FA801F03FFA040028D10FAA03A90CA8BF
:103A100005F079FF04E00CA92A1D084604F06AFFAE
:103A200004001BD10C98002805DA00210CA804F032
:103A3000D3FF0028EFD106A9404605F02BF804007B
:103A40000CD10CA908F10C0005F024F8040005D1F4
:103A500012A908F1180005F01DF80446684605F0A3
:103A600000FA09A805F0FDF903A805F0FAF90FA876
:103A700005F0F7F906A805F0F4F90CA805F0F1F93E
:103A800012A805F0EEF9204675E6000080B0FFFFB1
:103A9000F0B50E46054687B00021304604F09CFF85
:103AA0004A4F002813DB06F10C000021044604F005
:103AB00093FF00280BDB291D304604F0A5FF0028EA
:103AC00005DA291D204604F09FFF002802DB384656
:103AD00007B0F0BD03A805F08DFA684605F08AFA34
:103AE0002246114603A805F02FFC040066D12946A2
:103AF00003A801F0C7F9040060D1324611466846B8
:103B000005F022FC040059D12946684601F0BAF9B3
:103B1000040053D1A86930B1694605F11002084686
:103B200004F0E8FE1BE069460322084605F0D4FED7
:103B300004E069462A1D084604F0DCFE04003DD17D
:103B40000098002813DA0021684604F045FF002899
:103B5000EFD10CE069462A1D084605F086FE0400F8
:103B60002CD1291D684604F04FFF0028F2DA69467F
:103B70003246084605F0E8FB04001FD12946684696
:103B800001F080F9040019D1694605F11C020846CC
:103B900004F0B0FE04E069462A1D084605F065FE03
:103BA00004000BD1291D684604F02EFF0028F2DA2C
:103BB000694603A804F028FF00B13C4603A805F0BD
:103BC00050F9684605F04DF9204681E780B3FFFFC4
:103BD0002DE9F0470D46994690460446491CFCF7EE
:103BE00048FE00260FE000270AE000BF05FB076142
:103BF000484605F0C7F9A15DB8400843A0557F1CB1
:103C00004745F3D3761CAE42EDD30022012117E0E5
:103C1000605C04EB010803461040534003F00102CE
:103C200018F801CCC2F101061CFB06F703EA0702F3
:103C300002437B4063544CEAC61008F8010C491C4F
:103C4000A942E5D9BDE8F0872DE9F04786B00446E2
:103C5000DDE90E951F4690460E46684605F0CAF906
:103C600003A805F0C7F904F14C000021824605F0D5
:103C700089F9012803D0184806B0BDE8F087002173
:103C8000304605F07FF940B1002028703146684683
:103C900004F000FF040016D101E00120F5E73246F0
:103CA000514603A805F02FFE04000CD12A7803A981
:103CB000684605F067FC040005D16B464A46394664
:103CC0004046FFF785FF03A805F0CBF8684605F0EE
:103CD000C8F82046D0E7000080B0FFFF2DE9F04F84
:103CE0009BB00546DDE9248A1F461646894609A889
:103CF00005F080F912A805F07DF9684605F07AF91B
:103D00000CA805F077F903A805F074F90FA805F0E1
:103D100071F906A805F06EF915A805F06BF918A859
:103D200005F068F907F118029346394609A804F02E
:103D3000E1FD04E009A92A1D084605F096FD0400EE
:103D40007ED1291D09A804F05FFE0028F2DA09AA35
:103D5000114612A805F0F8FA0400F1D1294612A87C
:103D600001F090F80400EBD15A463946684605F058
:103D7000CAFD04E069462A1D084604F0BBFD0400A4
:103D8000DED10098002805DA0021684604F024FE00
:103D90000028EFD16A4611460CA805F0D5FA0400B8
:103DA000CED129460CA801F06DF80400C8D10CAAA8
:103DB00012A903A805F0A7FD04E003A92A1D0846DF
:103DC00004F098FD0400BBD10398002805DA002117
:103DD00003A804F001FE0028EFD108F118021746ED
:103DE00041460FA804F086FD04E00FA92A1D0846ED
:103DF00005F03BFD0400A3D1291D0FA804F004FE2B
:103E00000028F2DA3A46414606A805F07CFD04E0B7
:103E100006A92A1D084604F06DFD040010D106987D
:103E2000002805DA002106A804F0D6FD0028EFD10D
:103E300009AA06A915A805F087FA040000D100E038
:103E400081E0294615A801F01DF804007BD16A46DF
:103E50000FA918A805F078FA040074D1294618A80B
:103E600001F010F804006ED118AA15A9304604F02C
:103E700041FD040067D12946304601F003F80400F3
:103E80007BD132461146084605F05EFA040074D133
:103E90002946304600F0F6FF04006ED106F1180006
:103EA00018AA15A9074605F02EFD04E039462A1D7B
:103EB000084604F01FFD04005FD1B069002805DA50
:103EC0000021384604F088FD0028EFD13A4611461B
:103ED000084605F039FA04004FD12946384600F06B
:103EE000D1FF040049D13A465146104605F02CFA5C
:103EF000040042D12946384600F0C4FF04003CD1FA
:103F00000CAA12A9484605F01FFA040035D129462B
:103F1000484600F0B7FF04002FD109F1180003AAAA
:103F200005F11001064605F00FFA040025D12946D7
:103F3000304600F0A7FF04001FD132460CA91046FE
:103F400004F0D8FC05E018E031462A1D084605F0CB
:103F50008CFC040011D1291D304604F055FD0028C9
:103F6000F2DA324603A9104605F0EEF9040004D156
:103F70002946304600F086FF044609A804F071FF88
:103F800012A804F06EFF684604F06BFF0CA804F062
:103F900068FF03A804F065FF0FA804F062FF06A8FD
:103FA00004F05FFF15A804F05CFF18A804F059FFA7
:103FB0001BB02046BDE8F08F2DE9F0438DB00546DB
:103FC00016460F4609A805F015F8684605F012F8E0
:103FD00003A805F00FF806A805F00CF806F1180084
:103FE000A969804639B132461146684605F0ACF9F8
:103FF00004007DD156E002461146684605F0A4F95A
:104000000400F6D12946684600F03CFF0400F0D1D8
:104010006A46314603A804F06DFC04E003A92A1D9A
:10402000084605F022FC0400E3D1291D03A804F092
:10403000EBFC0028F2DA6A46314606A805F063FC7C
:1040400004E006A92A1D084604F054FC0400D0D15F
:104050000698002805DA002106A804F0BDFC002817
:10406000EFD106AA03A9684605F06EF90400C0D195
:104070002946684600F006FF0400BAD103226946CB
:1040800009A805F055F904E009A92A1D084605F01C
:10409000ECFB0400ADD1291D09A804F0B5FC0028F3
:1040A000F2DA5CE02946684600F0ECFE0400A0D19C
:1040B0000322694609A805F03BF904E009A92A1D75
:1040C000084605F0D2FB040093D1291D09A804F08D
:1040D0009BFC0028F2DA05F110000021814604F073
:1040E0007BFC70B342461146684605F02DF900E0AE
:1040F000EDE0040085D12946684600F0C3FE0400C7
:1041000085D16A46114603A805F01EF904008BD13B
:10411000294603A800F0B6FE040085D14A4603A94B
:10412000684605F011F9040091D12946684600F06F
:10413000A9FE04008BD109A96A46084604F0DAFBFF
:1041400005E00CE009A92A1D084605F08EFB0400D5
:104150008DD1291D09A804F057FC0028F2DA06F1D8
:104160000C029146114603A805F0EEF8040084D134
:10417000294603A800F086FE04008BD1012103A884
:1041800005F0A6FA04E003A92A1D084605F06DFB18
:1041900004008CD1291D03A804F036FC0028F2DAB3
:1041A00003AA3146684605F0CFF804008CD12946B1
:1041B000684600F067FE040086D10121684605F0DC
:1041C00087FA04E069462A1D084605F04EFB040004
:1041D0007DD1291D684604F017FC0028F2DA03AAF5
:1041E000114606A805F0B0F8040070D1294606A8CB
:1041F00000F048FE04006AD1012106A805F068FA23
:1042000004E006A92A1D084605F02FFB04005ED134
:10421000291D06A804F0F8FB0028F2DA09AA1146C5
:1042200003A805F091F8040051D1294603A800F035
:1042300029FE04004BD103A96A46084605F063FB3A
:1042400004E003A92A1D084604F054FB04003ED1F3
:104250000398002805DA002103A804F0BDFB00281C
:10426000EFD103A96A46084605F04DFB04E003A917
:104270002A1D084604F03EFB040075D1039800286F
:1042800005DA002103A804F0A7FB0028EFD1694656
:1042900003AA084605F037FB04E069462A1D0846D4
:1042A00004F028FB04005FD10098002805DA002103
:1042B000684604F091FB0028EFD1694609AA084638
:1042C00005F042F804004FD12946684600E04BE073
:1042D00000F0D8FD040047D1694606AA084605F05B
:1042E00012FB04E069462A1D084604F003FB0400A3
:1042F0003AD10098002805DA0021684604F06CFBEA
:104300000028EFD14246494606A805F01DF80400F2
:104310002AD1294606A800F0B5FD040024D10121C8
:1043200006A805F0D5F904E006A92A1D084605F0FF
:104330009CFA040018D1291D06A804F065FB00288A
:10434000F2DA03A9384604F0A5FB04000CD1694653
:1043500007F10C0004F09EFB040005D106A907F14B
:10436000180004F097FB044609A804F07AFD68469B
:1043700004F077FD03A804F074FD06A804F071FDB5
:104380000DB02046BDE8F083016B19B1C06B18B1C8
:104390000120704700207047022070472DE9F05F30
:1043A0000446DDE91186DDE90BA71D46001DDDF899
:1043B00028B0DDF8389000F0A9FD2DB15A46294605
:1043C00004F1100000F0A2FD3A46514604F11C0031
:1043D00000F09CFD324604F14C004146064600F0D8
:1043E00095FD4A4604F128000D9900F08FFDDDE9A6
:1043F0000F1204F1340000F089FD012507482564FF
:10440000C4E91150201D04F09CFAA065304604F068
:1044100098FAC4E917050020BDE8F09F10000020BD
:10442000F0B591B0044601200390092004900025C6
:1044300006A88DF804504FF4807724210590FCF7EE
:104440003AFA1021204604F0ADFD060071D1A068B3
:1044500001AA00680090A068016A6846FEF7C6FEDF
:10446000A06801AA416A6846FEF7C0FEA06801AADA
:10447000C16A684606F097FCA06801AA016B68460D
:1044800006F091FCA06801AA416B684606F08BFC1F
:10449000A06801AA816B684606F085FCA1680098B7
:1044A00001AA0860A0689DF90410406800908DF88A
:1044B0000450002904DA4942684606F074FC02E020
:1044C0006846FEF793FEA06801AA416A6846FEF7B7
:1044D0008DFEA06801AA816A6846FEF787FEA06883
:1044E00001AA016B684606F05EFCA06801AA416B58
:1044F000684606F058FCA06801AA816B684606F081
:1045000052FCA06801AAC16B684606F04CFCA16889
:10451000009801AA4860A0689DF904108068009086
:104520008DF80450002905DA4942684606F03BFC44
:1045300003E08BE16846FEF759FEA06801AA816A94
:104540006846FEF753FEA06801AAC16A6846FEF7F6
:104550004DFEA06801AA416B684606F024FCA068E5
:1045600001AA816B684606F01EFCA06801AAC16B17
:10457000684606F018FCA168009801AA8860A06847
:104580009DF90410C06800908DF80450002904DAE9
:104590004942684606F007FC02E06846FEF726FE40
:1045A000A06801AAC16A6846FEF720FEA06801AAB9
:1045B000C16A6846FEF71AFEA06801AA016B684648
:1045C000FEF714FEA06801AA016B6846FEF70EFE16
:1045D000A06801AA416B6846FEF708FEA06801AA20
:1045E000C16B684606F0DFFBA06801AA016A684655
:1045F00006F0D9FBA06801AA416A684606F0D3FB21
:10460000A168009801AAC860A0689DF9041000691B
:1046100000908DF80450002904DA4942684606F0FB
:10462000C2FB02E06846FEF7E1FDA06801AA016B4B
:104630006846FEF7DBFDA06801AA016B6846FEF73D
:10464000D5FDA06801AA416B6846FEF7CFFDA068C2
:1046500001AA416B6846FEF7C9FDA06801AA816BFB
:104660006846FEF7C3FDA06801AA416A684606F0E5
:104670009AFBA06801AA816A684606F094FBA168CB
:10468000009801AA0861A0689DF904104069009093
:104690008DF80450002904DA4942684606F083FB8D
:1046A00002E06846FEF7A2FDA06801AA416B6846D9
:1046B000FEF79CFDA06801AA416B6846FEF796FDD7
:1046C000A06801AA816B6846FEF790FDA06801AA68
:1046D000816B6846FEF78AFDA06801AAC16B684637
:1046E000FEF784FDA06801AA816A684606F05BFBBC
:1046F000A06801AAC16A684606F055FBA168009847
:1047000001AA4861A0689DF90410806900908DF8A5
:104710000450002904DA4942684606F044FB02E0EE
:104720006846FEF763FDA06801AA816B6846FEF744
:104730005DFDA06801AA816B6846FEF757FDA06881
:1047400001AAC16B6846FEF751FDA06801AAC16BC2
:104750006846FEF74BFDA06801AA816B6846FEF72C
:1047600045FDA06801AA416B6846FEF73FFDA068C1
:1047700001AA016A684606F016FBA06801AA416A10
:10478000684606F010FBA168009801AA8861A0683D
:104790009DF90410C06900908DF80450002904DAD6
:1047A0004942684606F0FFFA02E06846FEF71EFD41
:1047B000A06801AAC16B6846FEF718FDA06801AAAF
:1047C000C16B6846FEF712FDA06801AAC16B68467E
:1047D000FEF70CFDA06801AA016A6846FEF706FD17
:1047E000A06801AA816A684606F0DDFAA06801AAFD
:1047F000C16A684606F0D7FAA06801AA016B68464C
:1048000006F0D1FAA06801AA416B684606F0CBFA1F
:10481000A1680098C8619DF904100820002900DCF7
:104820000021A2681162009503E0A268009942F895
:1048300020106168401C8842F7D39DF904100029BC
:1048400004DA3B4603AA204601F0D5F811B0304601
:10485000F0BDF0B595B00446012003900D20049002
:10486000002506A88DF804504FF4C0773421059038
:10487000FCF721F81821204604F094FB06007ED1B5
:10488000A06801AA00680090A068016B6846FEF766
:10489000ADFCA06801AA416D6846FEF7A7FCA068C0
:1048A00001AA016D6846FEF7A1FCA06801AAC16DCE
:1048B000684606F078FAA168009801AA0860A06826
:1048C0009DF90410406800908DF80450002904DA26
:1048D0004942684606F067FA02E06846FEF786FC41
:1048E000A06801AA416B6846FEF780FCA06801AA97
:1048F000816D6846FEF77AFCA06801AAC16D684622
:10490000FEF774FCA06801AA016B684606F04BFA3A
:10491000A06801AA016D684606F045FAA1680098F2
:1049200001AA4860A0689DF90410806800908DF885
:104930000450002904DA4942684606F034FA02E0DD
:104940006846FEF753FCA06801AA816B6846FEF733
:104950004DFCA06801AAC16D6846FEF747FCA0683F
:1049600001AA416B684606F01EFAA06801AA416DD3
:10497000684606F018FAA1680098886000E015E221
:10498000A0689DF9041001AAC06800908DF8045039
:10499000002904DA4942684606F005FA02E0684652
:1049A000FEF724FCA06801AAC16B6846FEF71EFC56
:1049B000A06801AA016B6846FEF718FCA06801AA6E
:1049C000016D6846FEF712FCA06801AA416D6846B9
:1049D000FEF70CFCA06801AA816B684606F0E3F9BB
:1049E000A06801AA816D684606F0DDF9A06801AAF9
:1049F000C16D684606F0D7F9A168009801AAC860A1
:104A0000A0689DF90410006900908DF804500029F9
:104A100004DA4942684606F0C6F902E06846FEF745
:104A2000E5FBA06801AA416D6846FEF7DFFBA068C0
:104A300001AA416D6846FEF7D9FBA06801AA016C86
:104A40006846FEF7D3FBA06801AA416B6846FEF7F3
:104A5000CDFBA06801AA016B6846FEF7C7FBA06802
:104A600001AA016D6846FEF7C1FBA06801AA816D2D
:104A70006846FEF7BBFBA06801AAC16B684606F05A
:104A800092F9A06801AAC16D684606F08CF9A06889
:104A900001AAC16D684606F086F9A168009801AACE
:104AA0000861A0689DF90410406900908DF80450D9
:104AB000002904DA4942684606F075F902E06846C2
:104AC000FEF794FBA06801AA816D6846FEF78EFB95
:104AD000A06801AA816D6846FEF788FBA06801AA5C
:104AE000416C6846FEF782FBA06801AA816B6846AC
:104AF000FEF77CFBA06801AA416B6846FEF776FBD7
:104B0000A06801AA416D6846FEF770FBA06801AA83
:104B1000C16D6846FEF76AFBA06801AA016C684691
:104B200006F041F9A168009801AA4861A0689DF9C2
:104B30000410806900908DF80450002904DA49427D
:104B4000684606F030F902E06846FEF74FFBA068C1
:104B500001AAC16D6846FEF749FBA06801AAC16DB4
:104B60006846FEF743FBA06801AA816C6846FEF721
:104B70003DFBA06801AAC16B6846FEF737FBA06841
:104B800001AA816B6846FEF731FBA06801AA816D1E
:104B90006846FEF72BFBA06801AA416C684606F048
:104BA00002F9A168009801AA8861A0689DF9041023
:104BB000C06900908DF80450002904DA4942684623
:104BC00006F0F1F802E06846FEF710FBA06801AAC3
:104BD000C16C6846FEF70AFBA06801AA016C684632
:104BE000FEF704FBA06801AAC16B6846FEF7FEFA57
:104BF000A06801AAC16D6846FEF7F8FAA06801AA8C
:104C0000816C684606F0CFF8A168009801AAC861D7
:104C1000A0689DF90410006A00908DF804500029E6
:104C200004DA4942684606F0BEF802E06846FEF73C
:104C3000DDFAA06801AA016D6846FEF7D7FAA06800
:104C400001AA416C6846FEF7D1FAA06801AA016C7E
:104C50006846FEF7CBFAA06801AAC16C684606F068
:104C6000A2F8A168009801AA0862A0689DF9041042
:104C7000406A00908DF80450002904DA49426846E1
:104C800006F091F802E06846FEF7B0FAA06801AAC3
:104C9000416D6846FEF7AAFAA06801AA816C6846D1
:104CA000FEF7A4FAA06801AA416C6846FEF79EFAD6
:104CB000A06801AA016D684606F075F8A168009821
:104CC00001AA4862A0689DF90410806A00908DF8DE
:104CD0000450002904DA4942684606F064F802E00C
:104CE0006846FEF783FAA06801AA816D6846FEF760
:104CF0007DFAA06801AAC16C6846FEF777FAA06841
:104D000001AA816C6846FEF771FAA06801AA416D9C
:104D1000684606F048F8A168009801AA8862A06871
:104D20009DF90410C06A00908DF80450002904DA3F
:104D30004942684606F037F802E06846FEF756FA40
:104D4000A06801AAC16D6846FEF750FAA06801AAE2
:104D5000016D6846FEF74AFAA06801AAC16C684670
:104D6000FEF744FAA06801AA816D684606F01BF8B8
:104D7000A1680098C8629DF904100C20002900DC8D
:104D80000021A2681163009503E0A268009942F82F
:104D900020106168401C8842F7D39DF90410002957
:104DA00004DA3B4603AA204600F025FE15B0304643
:104DB000F0BD000070B504464068A6B00E2802D8C9
:104DC000002026B070BD0120029060680E3803906C
:104DD0000E2801D92A48F4E705AE3C2105A804961F
:104DE000FBF769FD0398A168820005A83831FBF73D
:104DF000FBFC0E20002503E0A16841F82050401C78
:104E000061688142F8D8214602AA084603F072FD83
:104E10000028D6D1DDE90201CDE9140117A8382216
:104E200005A91690FBF7E0FCE02114A804F0A0FC13
:104E30000028C6D1214614AA084603F05BFD0028CD
:104E4000BFD1072003E000BF46F82050401C039963
:104E50008142F9D802A914AA084603F04BFD0028A4
:104E6000AFD10F200390E02102A804F031FC00280C
:104E7000A7D1214602AA084603F03CFDA1E70000A5
:104E800080B0FFFF70B50546486E0C4640B12868FB
:104E900000280CDA0021284603F09EFD70B906E0D8
:104EA0002946221DBDE87040084604F010BA284685
:104EB00003F047FDA16DB0EB410F01D9124870BD61
:104EC000616E2846884704E02946221D084603F003
:104ED00011FD060016D1286800280DDA00212846A9
:104EE00003F07AFD0028EFD106E02946221D08468E
:104EF00004F0BBFC060005D1211D284603F084FD0B
:104F00000028F2DA304670BD80B0FFFF012392081E
:104F10000360C0E9012170472DE9FF4F0646C06DCF
:104F20004FF0020993464A46401CB0FBF2F8B7B076
:104F30004D46DDF818A124214846FBF7B6F90400D8
:104F400015D0002707EBC70004EB800001F090FDAF
:104F50007F1CFFB2AF42F5D3CDE9008A4B46214614
:104F600030463A9A00F088FA07002DD101E0244F2C
:104F70002AE047463898D0464A46824636A8CDE9C8
:104F8000002059463B46DDF810B1DDF8149105AA22
:104F90003046FEF759FEB0B905A88DE88108CDE985
:104FA00003982B4622465146304600F02BF850B964
:104FB0009DF8D8205146304600F0B2FB18B9514652
:104FC000304600F006F90746706FA0420FD074B16A
:104FD000002607E006EBC60004EB800001F038FD78
:104FE000761CF6B2AE42F5D32046FBF772F917B144
:104FF000389801F02DFD3BB03846BDE8F08F000039
:1050000080B2FFFF2DE9FF4F8BB00E4619A99A46DB
:1050100091E81003934601A8189F01F029FD385D1F
:10502000009053465A4631460B9800F09BFB050012
:105030002CD1012106F1180004F02DF9050025D12D
:105040005FEA080020D002464B4631460B9800F03C
:1050500095FA17E032461146641E0B98FEF7ACFF36
:10506000050013D1385D009053465A4601A90B98AC
:1050700000F078FB050009D1324601AB11460B98D0
:10508000FEF75AFB050001D1002CE3D101A801F085
:10509000DFFC0FB02846BDE8F08F2DE9F04F8FB050
:1050A0000546DDE91879984692460E4602A801F0B9
:1050B000DFFC0BA803F09EFF41460BA803F0EAFCBF
:1050C00004007CD1414602A801F080FA040076D1A8
:1050D0000121304604F0DFF8040070D106F1180019
:1050E0000021834604F0D7F8040068D106F10C00D3
:1050F00003F0B7FE06E002A92A1D084604F0B5FB3E
:1051000004005CD1291D02A803F07EFC0028F2DA1D
:105110003FB14B463A4602A9284600F0B1FA0400D6
:105120004DD1504603F00DFC07460DF120082DE04F
:105130003946504603F026FFC0B28146024602A916
:10514000304604F055FA040039D14A4641465846E3
:1051500004F04EFA040032D10BA902A8CDE90001F7
:10516000334602AA19462846FEF7B8FD040026D1A8
:105170004A4602A9304604F03BFA04001FD14A46D1
:105180004146584604F034FA040018D17F1ECFD2AD
:105190005C462A1D5946204603F032FF70B931465D
:1051A0002246084604F0D0F840B929463046FFF7B9
:1051B00069FE18B90121204604F06DF8044602A8E2
:1051C00001F046FC0BA803F04CFE0FB02046BDE8F2
:1051D000F08FF0B50D46064605F1180087B00021A6
:1051E000074603F0F9FB00284ED0684603F002FFA3
:1051F00003A803F0FFFE321D3946684603F000FFA6
:1052000004003AD16A46114603A804F09DF8040050
:1052100033D1314603A8FFF735FE04002DD12946CE
:1052200003AA084604F090F8040026D13146284627
:10523000FFF728FE040020D105F10C0103AA0D465A
:10524000084604F081F8040017D131462846FFF7DC
:1052500019FE040011D129466A46084604F074F884
:1052600004000AD131462846FFF70CFE040004D1A1
:105270000121384604F00FF80446684603F0F1FDBA
:1052800003A803F0EEFD204607B0F0BD2DE9F0477E
:105290008EB0884681461646022A07D24846D8F87C
:1052A0000010FFF796FF0EB0BDE8F0870C21104606
:1052B000FAF7FBFF070001D0002408E06D48F2E791
:1052C00004EB440007EB800003F094FE641CB4423E
:1052D000F6D302A803F08EFE09A803F08BFE05A802
:1052E00003F088FED8F800103846183103F0D2FBDE
:1052F00004007DD1012514E005EB450058F8252078
:1053000007EB80008246A0F10C01183204F01CF873
:1053100004006DD150464946FFF7B4FD040067D143
:105320006D1CB542E8D306EB460007EB800109F19E
:10533000040202A80C3903F063FE040058D1751E64
:105340005DB105EB450007EB800202A909A80C3A04
:1053500003F0FAFF040073D104E002A909A803F0E6
:1053600099FB12E0494609A8FFF78CFD040067D1BC
:1053700058F8252002A90846183203F0E5FF04007A
:105380005ED1494602A8FFF77DFD040058D109AA65
:10539000114605A803F0D8FF040051D1494605A8DD
:1053A000FFF770FD04004BD158F8250005AA01460F
:1053B00003F0CAFF040043D158F825004946FFF71F
:1053C00061FD04003CD158F8250005AA0C300146C7
:1053D00003F0BAFF040033D158F8250049460C30D9
:1053E000FFF750FD04002BD158F825000C3000E0E9
:1053F00026E0014609AA03F0A7FF040020D158F8CF
:10540000250049460C30FFF73DFD040018D158F83F
:105410002500D9F8081004F0ECF9040010D158F870
:105420002500D9F808100C3004F0E3F9040007D186
:1054300058F82500183003F014FD0DB16D1E7FE7FC
:1054400002A803F00EFD09A803F00BFD05A803F068
:1054500008FD002507E000BF05EB450007EB8000D5
:1054600003F0FFFC6D1CB542F6D33846FAF731FF66
:10547000204618E780B2FFFF2DE9F84F8346A3F1DD
:1054800001084FF001090C4609FA08F0C7B20025DF
:10549000114620460A9E01F099F800286BD108FBBE
:1054A00006F81FE0B5FBF6F109FA01F0C0B200EB17
:1054B000C00104EB810AB5FBF6F106FB115149B9B5
:1054C000400800EBC00004EB8001504601F07EF87C
:1054D000002850D1524611465846FEF76DFD00286F
:1054E00049D16D1CA845DDD80022694601208946B6
:1054F0000AE000BF00EBC00104EB8103400649F85D
:105500002230000E4946521CB842F3D35846FFF7EA
:10551000BDFE00282FD1012618E006EBC600354657
:1055200004EB80080EE005EBC50004EB8002701967
:1055300000EBC00004EB800143465846FEF7FCF840
:10554000002818D16D1EEED27006060EBE42E4D3BE
:105550000022484608E000BF02EBC20104EB8101D3
:10556000243140F82210521C511CB942F4D3694630
:105570005846FFF78BFEBDE8F88F00002DE9F04795
:105580000546806D86B0C01D4FEAD0089946924608
:105590000F460026684603F02DFD03A803F02AFD00
:1055A0004B4652464146684603F02BFC03E001217E
:1055B000684604F0DDF8040057D1291D684603F061
:1055C00023FA0028F3DA3046761C0A2803DD2B483C
:1055D00006B0BDE8F0870121684603F0FDF9002818
:1055E000DEDD07F118016A460E46084603F0ACFE00
:1055F00004003AD129463046FFF744FC040034D178
:105600006A46114603A803F09FFE04002DD12946E7
:1056100003A8FFF737FC040027D1394603AA084640
:1056200003F092FE040020D129463846FFF72AFCF9
:1056300004001AD103A96A46084603F085FE040057
:1056400013D1294603A8FFF71DFC04000DD107F173
:105650000C0103AA0E46084603F076FE040004D1AE
:1056600029463046FFF70EFC0446684603F0F9FB76
:1056700003A803F0F6FB2046AAE7000000B3FFFFF3
:105680002DE9FE4F0546806D9946C01D4FEAD008B2
:1056900092460F460026684603F0ACFC4B46524645
:1056A0004146684603F0ADFB03E00121684604F083
:1056B0005FF804002DD1291D684603F0A5F90028E4
:1056C000F3DA3046761C0A2802DD1448BDE8FE8F66
:1056D0000121684603F080F90028DFDD39466A467B
:1056E000084603F031FE040013D129463846FFF77F
:1056F000C9FB04000DD107F118016A460E460846A1
:1057000003F022FE040004D129463046FFF7BAFB1D
:105710000446684603F0A5FB2046D7E700B3FFFF29
:10572000FEB5044616460D46684603F063FC05F1D7
:105730000C021546211D684604F0E5F804000CD162
:105740000021284603F048F900B1012006EA0002D2
:105750006946284603F016FF0446684603F081FBBD
:105760002046FEBD2DE9F05F1F460A9E91468A46FF
:105770008346C6F3450500241DE0AC4201D1012259
:1057800000E0002204EBC40109EB81018846504689
:1057900003F0F8FE002817D1AC4201D1012200E04D
:1057A000002208F10C010AF10C0003F0EBFE0028C6
:1057B0000AD1641CE4B2BC42DFD3F2095146584618
:1057C000BDE8F05FFFF7ACBFBDE8F09FFEB5044653
:1057D000684603F00FFC31A2102104F1100003F021
:1057E00045FE050050D10121201D03F054FD0500A8
:1057F0004AD1E021201D03F06BFF050044D10122B6
:10580000211D201D04F068F805003DD1E021201D78
:1058100003F05EFF050037D10122211D201D04F099
:105820005BF8050030D1201D03F08BF8A065052141
:1058300004F1280003F02FFD050025D1012104F11A
:10584000400003F028FD05001ED104F1340003F0F0
:1058500008FB04F14C0001224FF4DF71064603F00F
:105860000CFF050010D10FA21021684603F0FEFDC9
:10587000050009D131466A46084604F044F805009F
:1058800002D140F2BF10E065684603F0EAFA15B1B4
:10589000204600F04DFF2846FEBD0000393841414A
:1058A000000000003833333544433136334242314F
:1058B000323442363531323943393646444539334C
:1058C0003344384437323341373041414443383729
:1058D00033443644353441374242304400000000FE
:1058E0000648016841F0807101600548002141606F
:1058F000016841F00101016070470000FCED00E02B
:10590000001000E02DE9F0410746D0F8E000A2B019
:105910004FF0000808B1002426E06FF03F0022B0ED
:10592000BDE8F08104EB840007EB8005D5F8F400B6
:10593000012800D1804600202090D5E9396020ABB5
:1059400080226946B047060017D1209B5BB1E1B2C7
:105950006A46384600F017F80600E0D155F8EC0F1B
:10596000209908442860641CD7F8E000A042D9DCE4
:10597000B8F1000F01D16FF03C068021684604F0B9
:1059800021F83046CBE72DE9F04192B01C4616468F
:1059900088460546402B09D900236A4621463046F1
:1059A00004F0FFFA07001ED16E4640248DF84080B7
:1059B0008DF8414005F108002968804621B9002191
:1059C00004F010FB07000ED101202860022210A96C
:1059D000404604F091FB070005D12246314640467F
:1059E00004F08AFB07464021684603F0EBFF12B043
:1059F0003846BDE8F08170B5134604464842D3E905
:105A000001216FF0030505EB8202885022461946FA
:105A1000104603F02AFF002801D1411E216070BD0D
:105A200013B54FF6FF73012269460248FDF77AF974
:105A300000981CBD340000202DE9F04F2DED028BA5
:105A4000ADF5637DFCF712FCFDF7EAF9E0480024B0
:105A5000016841F080010160016801F0800100915E
:105A6000016841F0010101600068DB4900F00100BC
:105A70000090D84808600846FCF76BFF08B172B682
:105A8000FEE7FDF7ABF9D448D449103001604FF47C
:105A9000E131C0E901140C21C460C0E90441846112
:105AA000C461FDF7CDF808B172B6FEE7CCA0FAF7F5
:105AB000AFFCFFF715FFCE480068E0900146CDA08F
:105AC000FAF7A6FCD04D6F680FF24038D2A4DDA8DB
:105AD00002F098FE80A801F0D9F804A800F0F6FBC7
